:020000040800F2
:10000000803A01206D020008F1420008DD3B000843
:10001000ED420008190E0008C14800080000000069
:10002000000000000000000000000000D1430008B4
:10003000F51300080000000001430008F543000824
:10004000870200088702000887020008870200086C
:10005000870200088702000887020008870200085C
:10006000870200088702000887020008870200084C
:10007000870200088702000887020008870200083C
:100080008702000887020008ED0D000887020008BB
:10009000870200088702000887020008870200081C
:1000A00087020008E1440008870200088702000870
:1000B00087020008ED440008870200088702000854
:1000C00087020008870200088702000887020008EC
:1000D000870200089D48000887020008A948000818
:1000E000870200088702000887020008054500080B
:1000F00045450008254500088702000887020008DA
:1001000087020008870200088702000887020008AB
:100110008702000887020008F944000887020008E7
:10012000870200088702000887020008870200088B
:10013000870200088702000887020008870200087B
:10014000870200088702000887020008870200086B
:10015000870200088702000887020008B5480008E7
:10016000870200088702000887020008870200084B
:1001700087020008870200088702000800000000CC
:10018000870200088702000800F002F800F05FF81C
:1001900014A696E8000CB244B344DA4501D100F04D
:1001A00056F8BAE80F000FA696E83000A5EB040554
:1001B00004EB0607AAEB0704A7F101074FEA1515A0
:1001C0004FEA3414A4F10104AC4201D300F03FF82B
:1001D00013F0010F18BFFB1A43F0010300F001F800
:1001E000DBE718472078000040780000103A24BF71
:1001F00078C878C1FAD8520724BF30C830C144BF8C
:1002000004680C6070470000704700000023002461
:1002100000250026103A28BF78C1FBD8520728BF16
:1002200030C148BF0B607047662907F08C830020FF
:1002300070471FB507F075FB00F066FC0400002056
:10024000002106F0B1FDE0601FBD10B510BD00F04B
:1002500057FD1146FFF7EDFF04F062FB00F075FD5E
:1002600003B4FFF7F2FF03BC00F0B8FD0948804774
:1002700009480047FEE7FEE7FEE7FEE7FEE7FEE788
:10028000FEE7FEE7FEE7FEE704480549054A064BA0
:1002900070470000CD440008890100088034012027
:1002A000803A0120803601208036012053EA020C7A
:1002B00000F069802DE9F04B4FF00006002B1FBFC6
:1002C000B3FA83F503FA05F424FA05F65E4012BF8B
:1002D0001643B2FA82F502FA05F4C5F120051EBFF5
:1002E00022FA05FC44EA0C04203556EA044C4FEA95
:1002F000144418BF641C4FF000084FF000099042EE
:1003000071EB030C39D3002919BFB1FA81F701FA57
:1003100007F6B0FA80F700FA07F6C7F120071EBF0C
:1003200020FA07FC46EA0C062037B6FBF4FCA7EBE4
:100330000507103F07F01F0BCBF120062CFA06F63D
:100340000CFA0BFB44BFB3460026202FA4BF5E4629
:100350004FF0000B5BEA060C08BF4FF0010B19EBE6
:100360000B0948EB0608ABFB027C06FB02CC0BFB3F
:1003700003CCC01B71EB0C01C1E70B4602464146A2
:100380004846BDE8F08B13B5084318BF4FF0FF3067
:100390000146AFF30080BDE81C4070470FB41CB5A8
:1003A000074B06AA7B4469460090059800F05DFB68
:1003B0000020694600F06CFB1CBC5DF814FB0000DB
:1003C000E90600002DE9F0474FF0000A894604468F
:1003D000C0F820A02046E1688847002876D025286C
:1003E00006D0D4E901219047206A401C2062F1E741
:1003F000E168204600258847C4F81CA0064600276F
:10040000C4F818A02A2E09D0304606F0C5FC38B32F
:1004100004EB8708303EC8F8186019E059F8041B4F
:10042000204604EB87029161E1688847012F064668
:1004300018D1E069002820DA25F020051DE0D8F861
:10044000180000EB800006EB40003038C8F81800B8
:100450002046E1688847064606F09EFC0028EED15B
:10046000012F0AD02E2E08D12046E16888477F1C34
:100470000646022F45F02005C4DBA069002803DAF8
:10048000404245F00105A061E80701D025F01005C4
:10049000B6B1A6F14100192802D8203645F400650E
:1004A0004A463146204625604D46FFF7BDFE58B10D
:1004B000012806D0ED1D25F0070000F1080989E7A5
:1004C00004E005F1040985E730468AE7206ABDE8C3
:1004D000F08710B5431C02E010F8011B71B18107D1
:1004E000FAD14FF0013202C88C1A8C4314EAC211BF
:1004F000F9D0C01A0A0603D0C01E10BDC01A10BD24
:100500000A0401D0801E10BD0902FCD0401E10BD9F
:10051000032A40F2308010F0030C00F0158011F82F
:10052000013BBCF1020F624498BF11F801CB00F807
:10053000013B38BF11F8013BA2F1040298BF00F85B
:1005400001CB38BF00F8013B11F0030300F0A58296
:10055000083AC0F0088051F8043B083A51F804CB3F
:10056000A0E80810F5E7121D5CBF51F8043B40F805
:10057000043BAFF30080D20724BF11F8013B11F810
:1005800001CB48BF11F8012B24BF00F8013B00F854
:1005900001CB48BF00F8012B704702F0FF0343EA8C
:1005A000032242EA024200F024B84FF0000204297C
:1005B000C0F0128010F0030C00F01B80CCF1040C92
:1005C000BCF1020F18BF00F8012BA8BF20F8022BC6
:1005D000A1EB0C0100F00DB85FEAC17C24BF00F86C
:1005E000012B00F8012B48BF00F8012B70474FF09A
:1005F000000200B5134694469646203922BFA0E873
:100600000C50A0E80C50B1F12001BFF4F7AF09077E
:1006100028BFA0E80C5048BF0CC05DF804EB89006F
:1006200028BF40F8042B08BF704748BF20F8022BB2
:1006300011F0804F18BF00F8012B704770477047CA
:1006400070472DE9FF4F0C461E464FF0FF378BB029
:10065000D2E90001DDF860800A908A46C1F30A55AC
:1006600005B93D46002108464FF00000BAF1000FE1
:1006700000F4400005DA00EB80004FF4400101EA8D
:1006800050004FEA9059B9F1010F00DDB9460A98C0
:1006900050EA4A000ED044F61050A5F2FF3545430B
:1006A0002F14B8F1000F1ED07542291E1EDDC9F1AE
:1006B00000021CE0B8F1010F4FF0000001D0302122
:1006C00003E0F24305E02154401CB042FBDB30461E
:1006D0000022002121540B99C1F80880C1E90020B3
:1006E0000FB0BDE8F08FBD1B6D1CDEE74A4600DA97
:1006F000694206A800F092FA06AB93E8070003AB44
:1007000083E8070050460A9905F066FF8DE8070068
:10071000A0F500501F3800900398002D0ADD42F22A
:100720001F014A460844002303A90390684606F0C7
:10073000CFF909E0A0F500504A461F38002303A96D
:100740000390684606F0D9F98DE807000004000C14
:1007500003D04FF0FF30410800E01046B8F1000F21
:1007600003D00022009215461EE0751E05D400F04D
:10077000CFF9303262556D1EF9D5B34601220843D8
:1007800002D000227F1C04E02078302801D1002212
:100790007F1E002A099784D01DE0112D07DA00F092
:1007A000B7F9303262556D1C50EA0102F5D10843A9
:1007B00002D00098C8B10EE00021681E05E0235C5D
:1007C000625C63542254401E491C8142F7DBAB46F5
:1007D000A81B401E0990002004F80B000B98099AF2
:1007E000C0F80880C0E9002B7AE711264FF0000816
:1007F00057E72DE9F04F88460446D21D22F0070145
:1008000091B0D1E90001CDE90A0106F0ADFA024646
:100810000B98C00F01D02D2007E02068810701D57B
:100820002B2002E0202101EAC000032A099001D018
:10083000072A05DB03464146204600F0AFF90BE1ED
:100840002078800601D5E06900E00620B8F1650F48
:10085000814606D0B8F1660F18D0B8F1670F70D195
:1008600031E00020B9F1110F009001DB112301E00C
:1008700009F101030AAA01A90CA8FFF7E2FEDDE9CC
:100880000C70002609F10105834647E001204B4624
:1008900000904FF000470AAA01A90CA8FFF7D1FE6B
:1008A000DDE90DB00C995D46002610B909F1010093
:1008B0000D18B9EB050003D4C0F1FF3609F10105AD
:1008C000A5EB09002BE0B9F1010F01DA4FF00109A6
:1008D0000020B9F1110F0090484601DD112300E01E
:1008E00003460AAA01A90CA8FFF7ABFEDDE90C70CC
:1008F0004D4600268346207800070AD4AB4500DA2F
:100900005D4601A8012D04DD411911F8011C3029B3
:1009100007D04F4502DA17F1040F04DA01208246AE
:100920000FE06D1EEEE7002F02DCED1B3E4403E0FE
:10093000781CA84200DD7D1CB81B00F1010A4FF0B5
:1009400000472078000703D4AA4501DB4FF0FF3AA7
:100950000021B7F1004F0DF143088DF8431024D06A
:1009600002202B23002F01DA7F422D230A21021EB1
:10097000A0F1010000DC5FB197FBF1FC97FBF1F205
:1009800001FB1C7C17460CF1300C08F801CDEEE79A
:10099000A8F1010003702188090501D5452100E077
:1009A0006521A0F1010800F8011C09980FA9A1EB2D
:1009B0000807FF1D00B10120411901EBEA70A16990
:1009C0003844081A401EA0612078C00602D4204690
:1009D000AFF30080099828B1D4E901219047206A3B
:1009E000401C20622078C00622D52046AFF300804C
:1009F0001EE0002E04DBB34502DD01A8805D00E0AF
:100A00003020D4E901219047206A401C2062761CE6
:100A1000AAF101005FEA000A0AD100F075F8C06887
:100A20000168405CD4E901219047206A401C2062A3
:100A3000281EA5F10105DCDC07E0D4E9012118F846
:100A4000010B9047206A401C2062381EA7F1010765
:100A5000F3DC2046AFF30080032011B041E6000034
:100A600001694A1C02610878704700B58FB0CDE972
:100A700001310021059105497944CDE90310114662
:100A80006846FFF79FFC0FB000BD0000E5FFFFFFC9
:100A90000A6802F8010B0A60704710B5203AC0F0EE
:100AA0000B80B1E81850A0E81850B1E81850A0E841
:100AB0001850203ABFF4F5AF5FEA027C24BFB1E8DA
:100AC0001850A0E8185044BF18C918C0BDE810401D
:100AD0005FEA827C24BF51F8043B40F8043B08BF26
:100AE0007047D20728BF31F8023B48BF11F8012BED
:100AF00028BF20F8023B48BF00F8012B70470000D8
:100B00000048704710000020004870473000002067
:100B100030B5B0F10A0271F100034FEA900E4EEACF
:100B2000817EB0EB0E0061EB91014FEA101E4EEAA0
:100B3000017E10EB0E0041EB11114FEA102E4EEA30
:100B4000016E10EB0E0041EB11214FEA104E4EEA00
:100B5000014E10EB0E0041EB1141401841F1000134
:100B60004FEAD00040EA41704FEAD1014FEA8104D8
:100B700044EA907410EB800544EB01046D1944EBDA
:100B80000404521BA3414FF0000348BF0A3200D5B2
:100B900030BD401C41F1000130BD00002DE9F041A5
:100BA0001F46044603260168072A01F4006004DB9F
:100BB00008B116A505E016A503E008B115A500E0EB
:100BC00015A521F010002060A069C01EA0610FB122
:100BD000401EA0612046AFF300804FB1D4E901214F
:100BE00038469047206A401C2062C01C206206E004
:100BF000206AFAE7D4E9012115F8010B9047761E27
:100C0000F8D22046AFF30080BDE8F0814E414E009F
:100C10006E616E00494E4600696E66002DE9F04730
:100C2000814616468AB0354878440DC88DE80D00D7
:100C300032487844801C03AC0DC884E80D0041F6AE
:100C40009B300844372190FBF1F290FBF1F5A5F1C0
:100C5000800501FB12041B3C02D56442012000E028
:100C60000020DFF898A080460027FA44AAF1BE0AC7
:100C70000EE0E0070AD03246684607EB4701012341
:100C80000AEB810105F039FF8DE8070064107F1C35
:100C9000002CEED1194F7F44AE3F19E0E80715D084
:100CA00007EB04100DF1180A90E80E008AE80E0018
:100CB000C068F04201D1981908903246012306A974
:100CC00003A805F01AFF03AB83E807006D10641C4E
:100CD000002DE3D14FF0010332466946B8F1000F11
:100CE00003A802D005F0F4FE01E005F006FFC9E913
:100CF0000001C9F808200AB0BDE8F0879C6D00002B
:100D00007546FFF7FDFEAE4605006946534620F0E6
:100D10000700854618B020B5FFF7B6FABDE82040B9
:100D20004FF000064FF000074FF000084FF0000BA7
:100D3000AC46ACE8C009ACE8C009ACE8C009ACE816
:100D4000C00921F007018D46704710B50446AFF386
:100D500000802046BDE81040FFF782BA0000000086
:100D600030B44FF0013C50F8042B51F8043BCCFA5E
:100D700052F4D51A20D1FCB950F8042B51F8043B99
:100D8000CCFA52F4D51A17D1B4B950F8042B51F853
:100D9000043BCCFA52F4D51A0ED16CB950F8042B9E
:100DA00051F8043BCCFA52F4D51A05D1002CDAD014
:100DB00030BC4FF00000704729BAB1FA81F111F050
:100DC0001801D1F120008440F2D1CA40CB4012F08A
:100DD000FF0213F0FF0330BCD01A704701491820FE
:100DE000ABBEFEE7260002007047000080B540F26F
:100DF000CC20C2F2000000F0AFFB40F21430C2F28F
:100E0000000000F0A9FB40F25C30C2F20000BDE837
:100E1000804000F0A1BB0000FEE700002DE9F0419A
:100E200086B0002543F630060595CDE90355CDE99A
:100E300001550095C4F20206306840F6004440F0C7
:100E4000800030603068C4F2020400F0800000903E
:100E50000098009530684FF4006140F00100306068
:100E60003068002200F00100009000980095306882
:100E70004FF4006840F002003060306800F002007B
:100E8000009000980095306840F0080030603068AD
:100E900000F00800009000980095306840F00400D1
:100EA0003060306800F0040000900098204600F0A8
:100EB000FDFE4FF470600190012701A92046CDE9A5
:100EC0000275049500F01CFE20464FF400610022DC
:100ED00000F0ECFE40F2EE2003F0F4FC20464FF46C
:100EE0000061012200F0E2FE0F2003F0EBFC05950B
:100EF000CDE90355CDE901550095306801A940F0D1
:100F000080003060306800F080000090009800950C
:100F1000306840F001003060306800F0010000905F
:100F200000980095306840F002003060306800F0B2
:100F30000200009000980095306840F00800306092
:100F4000306800F00800009000980095306840F08C
:100F500004003060306800F00400009000982046E3
:100F6000CDE90187039500F0CBFD20464FF40061E9
:100F700000F096FEA0B100200546012003F0A2FC7F
:100F800020464FF4006100F08BFE18B1C72D05F12B
:100F90000100F1D3C62D03D9012006B0BDE8F081D0
:100FA00020464FF4006100F07BFE18B1002006B02F
:100FB000BDE8F081002000BF0546012003F082FC5F
:100FC00020464FF4006100F06BFE18B9EF2D05F1DB
:100FD0000100F1D30020EE2D88BF012006B0BDE84E
:100FE000F08100002DE9F04F87B043F6300640F65F
:100FF0000044C4F20206C4F2020400274FF47069F0
:101000004FF0010A0DF1080B00254FF0000800BF5A
:101010000697CDE90477CDE90277019730684FF460
:10102000006140F0800030603068002200F08000F5
:10103000019001980197306840F0010030603068FD
:1010400000F00100019001980197306840F0020023
:101050003060306800F0020001900198019730681C
:1010600040F008003060306800F0080001900198FE
:101070000197306840F004003060306800F00400F0
:1010800001900198204600F011FE20465946CDE916
:10109000029ACDE9047700F033FD20464FF4006159
:1010A000002200F003FE022003F00CFC20464FF467
:1010B0000061012200F0FAFD0697CDE90477CDE941
:1010C000027701973068594640F080003060306800
:1010D00000F08000019001980197306840F0010015
:1010E0003060306800F0010001900198019730688D
:1010F00040F002003060306800F00200019001987A
:101100000197306840F008003060306800F0080057
:10111000019001980197306840F004003060306819
:1011200000F00400019001984FF40060CDE9020A3C
:101130002046049700F0E4FC0C2003F0C3FB20469B
:101140004FF40061C5F3460500F0AAFD00284FF0FA
:10115000320018BF65F07F0503F0B4FBB8F1070F4C
:1011600008F10108FFF454AFE8B207B0BDE8F08F12
:101170002DE9F04786B0002543F630010595CDE90D
:101180000355CDE901550095C4F202010A680746EE
:1011900042F080020A600A6840F6004402F08002D1
:1011A0000092009A00950A68C4F2020442F001021B
:1011B0000A600A684FFA87FA02F001020092009A68
:1011C00000950A6842F002020A600A6802F0020210
:1011D0000092009A00950A6842F008020A600A68C4
:1011E00002F008020092009A00950A6842F0040298
:1011F0000A600968002201F004000090009820466F
:101200004FF4006100F052FD4FF470600190012036
:10121000CDE9020501A92046049500F071FC2046A5
:101220004FF40061002207F0010500F03FFD002DA2
:101230004FF002004FF03C054FF0020908BF3C2080
:101240004FF03C0808BF022503F03CFB20464FF45A
:101250000061012200F02AFD284603F033FB17F05D
:1012600002004FF002054FF03C0620464FF40061AB
:101270004FF0000208BF3C2508BF022600F016FD13
:10128000284603F01FFB20464FF40061012200F0C6
:101290000DFD304603F016FB17F004004FF0020579
:1012A0004FF03C0620464FF400614FF0000208BFAB
:1012B0003C2508BF022600F0F9FC284603F002FB9B
:1012C00020464FF40061012200F0F0FC304603F0AC
:1012D000F9FA17F008004FF002054FF03C062046DF
:1012E0004FF400614FF0000208BF3C2508BF022602
:1012F00000F0DCFC284603F0E5FA20464FF40061DC
:10130000012200F0D3FC304603F0DCFA17F01000A5
:101310004FF002054FF03C0620464FF400614FF0BD
:10132000000208BF3C2508BF022600F0BFFC28468B
:1013300003F0C8FA20464FF40061012200F0B6FC29
:10134000304603F0BFFA17F020004FF002054FF0CF
:101350003C0620464FF400614FF0000208BF3C25D8
:1013600008BF022600F0A2FC284603F0ABFA204694
:101370004FF40061012200F099FC304603F0A2FA1C
:1013800017F040004FF002054FF03C0620464FF4A6
:1013900000614FF0000208BF3C2508BF022600F0A4
:1013A00085FC284603F08EFA20464FF400610122A6
:1013B00000F07CFC304603F085FA20464FF40061D3
:1013C0000022BAF1FF3FC4BF4FF002084FF03C09C2
:1013D00000F06CFC484603F075FA20464FF40061BB
:1013E000012200F063FC404603F06CFA06B0BDE851
:1013F000F08700007047000072B600BFFEE70000F3
:101400007047000070B581B00022009290F83C2037
:10141000012A03D1022001B070BD00BFD1F800E065
:101420000122BEF10A0F1FFA8EFC80F83C2009D37E
:101430004FEA4C02036812FA8EF2A2F11E0403F185
:101440000C0204E003680EEB4E0403F110020725C2
:101450001668A54026EA050515608D68166805FA28
:1014600004F4344314604968062907D801EB81016C
:101470004A1F194651F8345F0FE000BF0C2901EBF9
:10148000810105D8A1F12302194651F8305F04E02B
:10149000A1F14102194651F82C5F1F24944025EA1E
:1014A00004040C600CFA02F20C6842F2043CC4F230
:1014B000010C2243ACF54174A3420A603ED1BEF157
:1014C000120F07D1DCF8001041F48001CCF80010B5
:1014D00034E000BF2EF0010110292FD1DCF80010FC
:1014E000BEF1100F41F40001CCF8001026D140F2FB
:1014F0000801C2F2000109684DF68362C4F21B3292
:10150000A1FB0212910C01EB8101490000910099AD
:10151000A1B1009901390091009979B1009901397F
:101520000091009951B1009901390091009929B1B8
:1015300000990139009100990029EAD1002180F831
:101540003C10002001B070BD7047000070470000E3
:101550000068C06C7047000070B5044600680668FB
:101560004568B10717D515F0200114D0216CC906C4
:1015700003D4216C41F400712164816811F0405F53
:1015800002D1217E002969D02046FFF7DDFF2068C7
:101590006FF012010160710714D515F0800111D0B0
:1015A000216CC90603D4216C41F400512164816887
:1015B00011F4401F30D02046FFF722FF20686FF063
:1015C0000C010160F10706D015F040011CBF016855
:1015D0005FEAC17112D1B1060FD515F0806108BF65
:1015E00070BD616C6FF0200541F00201616405601F
:1015F0002046FFF7ABFF2068056070BD206C40F40B
:1016000080302064204600F0F1F820686FF001017E
:101610000160B106E1D4F0E7816B11F4401F02D004
:1016200081684905C7D441684905C4D4816811F06F
:10163000405FC0D1217E0029BDD1416821F08001E9
:101640004160206C20F480502064206CC005B2D42E
:10165000206C40F001002064ADE700BFC16A11F4C6
:10166000700F03D0816849053FF58EAF416821F0C6
:1016700020014160206C20F480702064206CC00444
:101680003FF582AF206C40F0010020647CE7000051
:10169000002804BF0120704710B5016C00293DD01F
:1016A000016CC90645D4016C41F20212914302312A
:1016B00042F204320164C4F20102116821F44031A3
:1016C0001160136890E812102343D0F810E0136003
:1016D0004A68012422F480724A604A68C0F60074A5
:1016E00042EA0E224A604A6822F040724A604A6822
:1016F00042EA0C024A608A6822F400628A60C26888
:101700008B681A438A60826A8B68A24223F07063F6
:101710008B608B6810D123F0405216E0044600F035
:1017200067F820460021616484F83C10016CC9060A
:10173000B9D5012153E000BF1A438A608A6822F0BC
:1017400040528A60C26A8B681A438A608A6822F0B3
:1017500002028A608A68037E90F8204042EA4302CF
:101760008A604A6884B142F400624A604A684EF274
:10177000000322F460424A60426ACFF6FF734C686D
:1017800003EB4232224301E022F400624A60CA6A5B
:1017900040F2000C22F47002CA62C3694269CFF6BB
:1017A000F07CCC6A0CEB03532343CB628B6823F4AD
:1017B00000738B6090F830308C6844EA43238B6070
:1017C0008B6823F480638B608B6843EA82228A6093
:1017D00000214164026C012363F3010202640022D0
:1017E00080F83C20BDE81040084670477047000074
:1017F00080B586B0006842F20022C4F201020021E6
:101800009042CDE90411CDE90211019142D042F29A
:101810000011C4F20101884220D042F20001C4F25A
:101820000101884262D1002043F630010090C4F2E9
:1018300002014A6942F480724A614A6902F4807284
:101840000092009A0090086840F001000860086863
:1018500000F0010000900098022034E0002043F6E0
:1018600030010090C4F202014A6942F400724A61F8
:101870004A6902F400720092009A0090086840F0F1
:1018800001000860086800F0010000900098042042
:1018900019E000BF43F630000091C4F20200426933
:1018A00042F480624261426902F480620092009ACE
:1018B0000091016841F001010160006800F0010041
:1018C00000900098082001900320029000200390CF
:1018D0000020C4F2020001A900F012F91220002138
:1018E000002200F05DFA122000F048FA06B080BD38
:1018F00010B581B00021009190F83C10012903D16E
:10190000022001B010BD00BF0468012180F83C1026
:10191000214651F8083FDB0729D10B684DF6836259
:1019200043F001030B6040F20803C2F200031B689E
:10193000C4F21B32A3FB02239A0C02EB4202009278
:10194000009AA2B1009A013A0092009A7AB1009AE4
:10195000013A0092009A52B1009A013A0092009A1C
:101960002AB1009A013A0092009A002AEAD10A6844
:10197000036CD2070CD143F01001016400F1440163
:1019800001200A6810430860002001B010BD00BFAC
:1019900040F2017223EA020202F580720264626878
:1019A000520504D5026C012363F30D320264026C0C
:1019B0004FF0000E0023D20444BF426C22F0060315
:1019C00042F2043C436480F83CE06FF02200C4F231
:1019D000010C2060DCF80000C0060DD0ACF54170B1
:1019E00084422BD14FF60450CFF6FF705CF8000014
:1019F00010F0405F22D125E042F20000C4F2010065
:101A0000844217D042F20020C4F2010084420DD07B
:101A100042F20010C4F2010084420FD1DCF8000051
:101A2000C00607D0ACF58270844207D1DCF8000014
:101A3000C00603D4086810F0405F03D0002001B056
:101A400010BD00BF4FF080409BE7000070B5866D71
:101A5000044600F031F994F83510022928D10546E2
:101A60002068216C026822F016020260426922F0AE
:101A70008002426109B9A16C19B1016821F0080125
:101A80000160016821F00101016000BF2068006869
:101A9000C00715D000F010F9401B0628F6D320200F
:101AA0006065032084F83500002184F8341070BD8F
:101AB000802060650120002184F8341070BD00BFD3
:101AC000E06D3F2101FA00F0B060012084F835009C
:101AD0000020002184F8341070BD000090F835100B
:101AE000022909D1052180F835100068016821F02C
:101AF000010101600020704780214165012070478D
:101B00002DE9F04F83B000F1200200F13E4741F68D
:101B10000045009207F1FF77C4F2020508224FEA60
:101B2000B726A84208BF072200254FF000084FF053
:101B30000009072E38BF4FEAB72201920AE000BF22
:101B400009F1010908F10208B9F1100F05F10405C6
:101B500000F0A2800F68012202FA09FE17EA0E0ABD
:101B6000EED0D1F804C003220CF003077E1E02FA67
:101B700008F4012E6FEA040B12D88468CE6804EAD8
:101B80000B0406FA08F634438460446824EA0E061F
:101B9000CCF3001404FA09F42643466004E000BFC5
:101BA000032F01D103271EE0C6688C6806EA0B06E6
:101BB00004FA08F42643022FC66014D16FF0030222
:101BC000009E02EA590756F807C005F01C040F22D0
:101BD0000B69A2402CEA0202A3401A43F251D1F849
:101BE00004C00CF00307026807FA08F302EA0B02CC
:101BF0001A431CF4403F0260A2D0002243F6440383
:101C00000292C4F202031A6843F6004442F480428E
:101C10001A601A68C4F2010402F480420292029A25
:101C200029F003024FF6084C2244CFF6FF7C52F80D
:101C30000C3005F00C070F26BE40B343019E06FA98
:101C400007F73B4342F80C30A2684B6842EA0A07A8
:101C500043F60C4CDE0258BF22EA0A07A760C4F222
:101C6000010CDCF800209E0242EA0A0758BF22EA73
:101C70000A07CCF8007062689E0342EA0A0758BF60
:101C800022EA0A0767602268DB0342EA0A0758BFB4
:101C900022EA0A07276053E703B0BDE8F08F00008F
:101CA0000069084018BF012070470000002A08BFE3
:101CB000090481617047000043F23C40C2F2010018
:101CC0000068704780B543F60040C4F20200016826
:101CD00041F400710160016841F4806101600168B4
:101CE00041F480710160032000F086F80F2000F0BD
:101CF00005F800F027F8002080BD000070B540F224
:101D00000006C2F2000640F208013278C2F2000179
:101D10004FF47A730968B3FBF2F20446B1FBF2F1B7
:101D2000084600F05FFB0F2C4FF0010508D838B9CA
:101D30004FF0FF3021460022002500F031F874609A
:101D4000284670BD82B0002043F640010190C4F2E5
:101D500002014A6842F480424A604A6802F48042C2
:101D60000192019A0090086840F08050086008686D
:101D700000F080500090009802B07047002848BFE3
:101D8000704700F01F01012202FA01F11C2202EA51
:101D9000D0004EF20012CEF20002815070470000D7
:101DA00010B54EF60C5CCEF2000CDCF80030C3F33C
:101DB000022E8EF00704042C28BF0424BEF1030376
:101DC0004FF0FF3E0EFA04F438BF0023A1439940C0
:101DD0000EFA03F39A43114300F00F0200F160433F
:101DE0000901043A03F564436244002848BF02F144
:101DF0000C03197010BD00004EF60C51CEF200011C
:101E00000A684FF6FF031A4060F30A2242F080602E
:101E100040F0FD7008607047002804BF0120704743
:101E20002DE9F04143F60808C4F202080446D8F848
:101E3000F8030D4600F00700884207D288F8F853EF
:101E4000D8F8F80300F00700A84277D1206881078E
:101E500017D5410705D5D8F8001041F4E051C8F86E
:101E60000010010705D5D8F8001041F46041C8F80A
:101E70000010D8F80010A26821F0F0011143C8F852
:101E80000010C00740D1D8F8F80300F00700A842BE
:101E900007D988F8F853D8F8F80300F00700A842EB
:101EA0004CD12068410707D5D8F80010E26821F42A
:101EB000E0511143C8F80010000708D5D8F8000019
:101EC000216920F4604040EAC100C8F8000000F039
:101ED0007DF8D8F8001047F6E012C1F30311C0F600
:101EE0000002515C40F2080220FA01F140F20400C5
:101EF000C2F200000068C2F200021160FFF7FEFEAD
:101F00000020BDE8F08100BF6068811E022907D271
:101F100058F8081C89015CBF0120BDE8F08111E080
:101F2000012807D158F8081C89035CBF0120BDE8CF
:101F3000F08107E058F8081C890703D40120BDE8A8
:101F4000F08100BFD8F8001021F003010843C8F861
:101F50000000FFF7B1FE064641F28837D8F80000CE
:101F6000616800F00C00B0EB810F8CD0FFF7A4FE8D
:101F7000801BB842F2D90320BDE8F08140F208008E
:101F800043F60801C2F20000C4F2020100680968C9
:101F900047F6F012C1F38221C0F60002515CC8403E
:101FA0007047000040F2080043F60801C2F200004A
:101FB000C4F202010068096847F6F012C1F3423129
:101FC000C0F60002515CC8407047000010B543F6EF
:101FD0000404C4F20204606800F00C0142F2004004
:101FE0000829C0F2F40007D0042918BF10BD41F23F
:101FF0000020C0F27A0010BD216801F03F02216884
:1020000023684902C3F3881106D4A1FB0001002311
:10201000FEF74CF907E000BF41F20020C0F27A0061
:102020004843B0FBF2F021680222C1F3014102EB08
:102030004101B0FBF1F010BD002804BF0120704742
:102040002DE9F04182B00446007843F60006C0074F
:10205000C4F202060CD0B06800F00C00042840F076
:1020600081803068800303D56068002800F06881B3
:10207000207880071BD5B06810F00C0F09D0B0682D
:1020800000F00C00082840F087807068400200F1E2
:1020900083803068800703D5E068012840F05081D4
:1020A0003068216920F0F80040EAC10030602078F3
:1020B000000713D4207840072AD4A569002D00F02A
:1020C0003A81B06800F00C00082840F0A580012D8E
:1020D00040F00E81012002B0BDE8F0816069002867
:1020E00000F082800020C4F247200121C0F8801E49
:1020F000FFF7E2FD054600BF706F8007DAD4FFF7F7
:10210000DBFD401B0228F7D9032002B0BDE8F081B7
:10211000306C5FEAC0080AD400200190306C40F0B7
:1021200080503064306C00F080500190019847F28C
:102130000007C4F200073868C00547D4386840F487
:1021400080703860FFF7B8FD054600BF3868C005ED
:102150003CD4FFF7B1FD401B0228F7D9032002B0A1
:10216000BDE8F081B06800F00C00082803D1706869
:1021700040023FF576AF61683068B1F5803F07D027
:10218000B1F5A02F40F09A8040F480203060306894
:1021900040F4803030609AE0E068002840F20000AF
:1021A000C4F247205CD001210160FFF785FD0546A0
:1021B000306880073FF574AFFFF77EFD401B0228B3
:1021C000F6D9032002B0BDE8F08100BFA168306FEE
:1021D000012905D0052955D140F004003067306F42
:1021E00040F00100306756E00020C4F24720002193
:1021F000C0F8801EFFF760FD054600BF706F8007C6
:102200007FF558AFFFF758FD401B0228F6D9032091
:1022100002B0BDE8F08100BF0027C4F247270020CC
:102220003866FFF749FD022D05460DD13068800163
:1022300040F18A80FFF740FD401B02284FF0030069
:10224000F4D902B0BDE8F0813068800173D5FFF7A2
:1022500033FD401B02284FF00300F5D9F1E700BF22
:1022600000210160FFF728FD054600BF30688007A8
:102270007FF51DAFFFF720FD401B02284FF0030044
:10228000F4D9DEE720F001003067306F002920F03C
:10229000040030677AD0FFF70FFD054641F288371A
:1022A000306F800700F18480FFF706FD401BB842C5
:1022B000F6D9032002B0BDE8F08100BF20F48030E1
:1022C00030603068002920F4802030607AD0FFF739
:1022D000F3FC0546306880033FF5CAAEFFF7ECFC1F
:1022E000401B6428F6D9032002B0BDE8F08100BF8E
:1022F0007068E16900F480028A4221D1216A00F00D
:102300003F028A421CD147F6C071626A0140B1EBBC
:10231000821F15D1A16A4FF6FF73C903994300F4D8
:102320004032A1F580318A420AD1E16A00F0706042
:10233000B0EB016F04D1002002B0BDE8F08100BF16
:10234000012002B0BDE8F08104F11C052FCD084347
:1023500040EA8210D9034FF6FF729143A1F5803114
:1023600040EA05600843706001203866FFF7A4FC6E
:10237000044600BF30688001DDD4FFF79DFC001BE0
:1023800002284FF00300F5D95BE700BFFFF794FC8C
:10239000054641F2883700BF306F800708D5FFF748
:1023A0008BFC401BB8424FF00300F5D949E700BF52
:1023B000B8F1000F3FF581AE306C20F080503064F2
:1023C0007BE600BFFFF778FC054600BF306880035E
:1023D0007FF54EAEFFF770FC401B64284FF0030002
:1023E000F4D92EE7411E0020B0EB116F1CBF012075
:1023F00070474EF21002CEF2000251604EF62351A9
:10240000CEF20001F0230B7007219060116070473D
:10241000704700007047000090F83C20012A04BF7C
:1024200002207047B0B501F108053CCDD1E900CEDE
:1024300023F47C5322F470521A432EF4F0431A43CF
:102440002CF4E0431A4324F4C0431A432A43C969D5
:1024500022F48042036811435964002180F83C1043
:102460000020B0BD90F83C20012A4FF0020254D069
:1024700010B580F83D200268D2F804E0D2F808C018
:102480000C682EF07003234341F2FF74C4F2000481
:10249000A24253600EDC40F2FF73C4F200039A4282
:1024A00016DCB2F1804F2BD040F20043C4F200039F
:1024B00024E000BF40F2FF33C4F201039A4213DC70
:1024C00041F60003C4F200039A4219D0002313E03E
:1024D00040F60003C4F200039A4211D040F60043D4
:1024E000C4F200030AE000BF44F20003C4F2010397
:1024F0009A4205D040F20043C4F201039A4204D14B
:1025000049682CF08003194391600121002280F872
:102510003D1080F83C20BDE8104010467047000098
:10252000002804BF0120704710B5044690F83D0014
:1025300028B9002084F83C00204600F01FF8022053
:1025400084F83D002068211D02F00CF8012084F879
:10255000460084F83E0084F83F0084F8400084F888
:10256000410084F8420084F8430084F8440084F871
:10257000450084F83D00002010BD000010B582B079
:10258000006841F6FF31C4F20001884220DD40F2CC
:10259000FF31C4F2010188423CDC41F60041C4F243
:1025A0000001884264D042F20001C4F20001884276
:1025B0005CD10020019043F64000C4F202000168A3
:1025C0002D2441F480710160006800F480708FE078
:1025D00040F20041C4F20001884237D041F20001CC
:1025E000C4F20001884275D041F60001C4F2000136
:1025F00088423BD10020019043F64000C4F2020023
:1026000001682B2441F040010160006800F04000A7
:102610006EE000BF40F20041C4F20101884237D0B1
:1026200044F20041C4F2010188421FD10020019010
:1026300043F64000C4F202004168192441F400311D
:102640004160406800F4003052E000BF002001907B
:1026500043F64000C4F2020001681D2441F002016B
:102660000160006800F0020042E000BF02B010BD4F
:102670000020019043F64000C4F2020001682C24BF
:1026800041F080010160006800F0800030E000BF90
:102690000020019043F64000C4F20200416800228D
:1026A00041F0020141604068002100F00200019009
:1026B00001982B20FFF774FB2B20FFF75FFB2C20EA
:1026C00000210022FFF76CFB2C20FFF757FB2D2485
:1026D00010E000BF0020019043F64000C4F2020069
:1026E0000168362441F010010160006800F010001C
:1026F00001900198204600210022FFF751FB20465F
:1027000002B0BDE81040FFF739BB000090F83D1063
:1027100001291CBF01207047022180F83D1000688C
:1027200041F2FF71C4F2000188420DDC40F2FF71FA
:10273000C4F20001884215DCB0F1804F2AD040F28B
:102740000041C4F2000123E040F2FF31C4F2010174
:10275000884213DC41F60001C4F20001884219D01E
:10276000002113E040F60001C4F20001884211D0BC
:1027700040F60041C4F200010AE000BF44F200014B
:10278000C4F20101884205D040F20041C4F20101C7
:10279000884206D1816801F00701062904BF0020A4
:1027A0007047016841F0010101600020704700009E
:1027B00090F83D1001291CBF01207047022180F8CC
:1027C0003D10006841F2FF72C168C4F200029042FD
:1027D00041F00101C1600DDC40F2FF71C4F2000163
:1027E000884215DCB0F1804F2AD040F20041C4F29B
:1027F000000123E040F2FF31C4F20101884213DC02
:1028000041F60001C4F20001884219D0002113E012
:1028100040F60001C4F20001884211D040F60041A8
:10282000C4F200010AE000BF44F20001C4F2010159
:10283000884205D040F20041C4F20101884206D12D
:10284000816801F00701062904BF00207047016874
:1028500041F001010160002070470000014600685E
:1028600041F21113026A1A4204D00122002081F8B9
:102870003D207047026A40F244431A42F5D1026893
:1028800022F0010202600122002081F83D20704701
:1028900090F83C20012A4FF002026CD080B580F8FD
:1028A0003D20D0F800C04FF67772DCF8083023EAFC
:1028B0000202CCF808200B684F2B29DC1F2B45DDCA
:1028C000202B46D0302B44D0402B40F0AF80D1F8A5
:1028D00004E0C968DCF82030DCF8202022F0010296
:1028E000CCF82020DCF8182022F0F00242EA011196
:1028F00023F00A0242EA0E02CCF81810CCF820208D
:10290000DCF8081041F0470121F0300128E000BF59
:102910006F2B33DDB3F5005F74D0B3F5805F21D04A
:10292000702B40F08380D1E901E3C968DCF808200E
:1029300043EA0E0322F47F4243EA01211143CCF81B
:102940000810DCF8081041F0770109E00BB1102BFA
:102950006CD1DCF8081021F07001194341F0070137
:10296000CCF808100022012180F83D10002180F8E9
:102970003C10BDE880401046704700BF502B21D06E
:10298000602B53D1D1F804E0C968DCF82030DCF8C2
:10299000202022F01002CCF82020DCF8182022F4AD
:1029A000704242EA013123F0A00242EA0E12CCF852
:1029B0001810CCF82020DCF8081041F0670121F055
:1029C0001001CDE7D1F804E0C968DCF82030DCF86C
:1029D000202022F00102CCF82020DCF8182022F080
:1029E000F00242EA011123F00A0242EA0E02CCF898
:1029F0001810CCF82020DCF8081041F0570121F025
:102A00002001ADE7D1E901E3C968DCF8082043EA19
:102A10000E0322F47F4243EA01211143CCF808104F
:102A2000DCF8081041F480419AE700BF01229AE7E0
:102A30007047000070B504460068C5680669B107B4
:102A400016D515F0020113D06FF0020101610121CA
:102A500021778069800703D02046FFF7E9FF05E072
:102A6000204600F035F9204600F074FA0020207767
:102A7000700719D515F0040016D020686FF0040116
:102A8000016102212177806910F4407F04D0204643
:102A9000FFF7CEFF06E000BF204600F019F9204600
:102AA00000F058FA00202077300717D515F00800FD
:102AB00014D020686FF00801016104212177C069FA
:102AC000800703D02046FFF7B3FF05E0204600F063
:102AD000FFF8204600F03EFA00202077F00619D5D6
:102AE00015F0100016D020686FF010010161082168
:102AF0002177C06910F4407F04D02046FFF798FF8B
:102B000006E000BF204600F0E3F8204600F022FA7D
:102B100000202077F00718BF15F0010002D1300621
:102B200009D412E020686FF001010161204600F035
:102B30009BFA300609D515F0800006D020686FF0AA
:102B4000800101612046FFF763FC700609D515F08E
:102B5000400006D020686FF040010161204600F07F
:102B60008DFBB00658BF70BD15F0200008D021685D
:102B70006FF0200220460A61BDE87040FFF74ABCB2
:102B800070BD000080B586B0006841F6FF31C4F228
:102B9000000188424FF000010591CDE90311CDE914
:102BA00001112BDD41F60041C4F20001884245D0FD
:102BB00042F20001C4F20001884251D040F20041CB
:102BC000C4F20101884240F081800020009043F669
:102BD0003000C4F20200016841F0040101600068A5
:102BE000032100F00400009000984FF44070019021
:102BF0000020C4F2020000F500605EE040F20041F7
:102C0000C4F20001884241D041F60001C4F2000143
:102C100088425BD10020009043F63000C4F20200ED
:102C2000016841F0020101600068092100F0020022
:102C3000009000984FF4404039E000BF0020009021
:102C400043F63000C4F20200016841F00101016066
:102C5000006800F0010000900098402010E000BFE4
:102C60000020009043F63000C4F20200016841F0F9
:102C700001010160006800F00100009000988020D0
:102C8000019000200921C4F2020016E0002000900B
:102C900043F63000C4F20200016841F00201016015
:102CA0000068022100F002000090009803200190CB
:102CB0000020C4F2020000F580600222029200228D
:102CC000059101A9CDE90322FEF71AFF06B080BDE8
:102CD0007047000090F83C30012B04BF0220704781
:102CE0004FEAB202032A00F2FF802DE9F043DFE849
:102CF00002F003B13F7F00BF036840F200461C6A48
:102D00001A6A24F0020422F001021A621A46D3F869
:102D100004C052F818EF8F6843F48065C4F20106CE
:102D2000B54244EA070405D1CF6824F00C0427F02B
:102D300004073C430F68B54206D1D1E905582CF48D
:102D400040762E4346EA080C2EF073063743C3F84C
:102D500004C09F614F6809695F631C629F6947F007
:102D600008079F619F6927F004079F61B1E000BFDA
:102D7000036840F200481C6A1A6A24F4007422F4C2
:102D800080721A621A46D3F804C052F81CEF8F689A
:102D900043F48065C4F20108454544EA072408D19C
:102DA000CF6840F2FF463F0224F4406427EA06065B
:102DB0003443D1F80090454506D1D1E905562CF4AD
:102DC00040572E4347EA061C2EF0730747EA0907CF
:102DD000C3F804C0DF614F680969DF631C62DF6903
:102DE00047F00807DF61DF6927F00407DF6170E063
:102DF000036840F20045D3F820C01A6A43F48067A4
:102E000022F480521A621A465C6852F81C8FD1F87C
:102E100000E08E68C4F20105AF4204D14D6924F48C
:102E2000804444EA85142CF4005747EA063728F416
:102E3000E64646EA0E265C60DE614E6809691E645D
:102E40001F62DF6947F40067DF61DF6927F480678D
:102E5000DF613DE0036840F200481C6A1A6A24F012
:102E6000200422F010021A621A46D3F804C052F865
:102E700018EF8F6843F48065C4F20108454544EAC1
:102E8000071407D1CF686FF0400624F0C00406EAAB
:102E900007163443D1F80090454506D1D1E90556CF
:102EA0002CF440672E4347EA860C2EF4E64747EAA7
:102EB0000927C3F804C09F614F6809699F631C62BA
:102EC0009F6947F400679F619F6927F480679F614E
:102ED00009021368194311600021BDE8F043002284
:102EE00080F83C20084670470121002280F83C20F1
:102EF00008467047002804BF0120704710B50446FB
:102F000090F83D0028B9002084F83C00204600F0ED
:102F10001FF8022084F83D002068211D01F022FBEB
:102F2000012084F8460084F83E0084F83F0084F8CD
:102F3000400084F8410084F8420084F8430084F89B
:102F4000440084F8450084F83D00002010BD0000D6
:102F50007047000070470000C1B1042908D008295B
:102F600014BF41224022825C012A05D016E000BF36
:102F70003F22825C012A11D10222082910D00429A3
:102F800014BF80F8412080F83F200BE090F83E20ED
:102F9000012A03D1022280F83E2003E0012070477D
:102FA00080F84020006801F01F010122036A02FA44
:102FB00001F123EA01020262026A114341F2FF7247
:102FC000C4F20002904201620CDC40F2FF71C4F2D4
:102FD0000001884214DCB0F1804F37D040F200414C
:102FE00016E000BF40F2FF31C4F20101884215DC57
:102FF00041F60001C4F20001884227D0002115E00B
:1030000040F60001C4F2000188421FD040F60041A2
:10301000C4F20001884219D01FE000BF44F2000151
:10302000C4F20101884211D040F20041C4F2010112
:10303000884212D1416C40F2004340F48062C4F2F5
:10304000010341F400419A42416406D1816801F0D4
:103050000701062904BF00207047016841F0010103
:103060000160002070470000006844F20041C4F293
:103070000101884206D040F2A430C2F20000FFF7FE
:1030800097BB00BF2DE9F04740F2CC24C2F2000408
:103090002046FEF72DFC2046FEF75AFA00EE100AF5
:1030A00040F2980A9FED741AB8EE400AC2F2000A84
:1030B0008AED000A20EE010A10EE100A04F096FBD9
:1030C0009FED5B0B53EC102B04F0A4F99FED5A0B12
:1030D00053EC102B03F0B0FE41EC100B8AED040B07
:1030E00003F078FE40F21434C2F20004CAF818006B
:1030F0002046FEF7FDFB2046FEF72AFA00EE100AF6
:10310000B8EE400A10EE100A04F070FB9FED4C0B75
:1031100053EC102B04F07EF99FED4B0B57EC106B2A
:1031200032463B4604F076F99FED490B58EC109B74
:103130004A46434603F034FF32463B4604460D46BA
:1031400004F08DFB00281CBF3D46344645EC104B77
:10315000204629468AED080B03F03CFE40F25C3421
:10316000C2F20004CAF828002046FEF7C1FB204640
:10317000FEF7EEF904F0C3F89FED370B53EC102B7C
:1031800004F048F94A46434604F044F941EC100B78
:1031900004468AED020B9FED320B0D4653EC102BCB
:1031A00004F038F902460B462046294604F032F96D
:1031B0009FED2D0B8046894653EC102B2046294667
:1031C00004F028F902460B462046294604F022F96D
:1031D00006460F464046494622462B4604F01AF959
:1031E00032463B4603F028FE9FED210B06460F4674
:1031F00053EC102B2046294604F00CF932463B468E
:1032000003F01AFE9AED081B41EC100B51EC110B68
:103210008AED0C0B03F0DEFDCAF83800BDE8F0477C
:1032200040F2A430C2F20000FFF7C2BA00BF00BFF4
:1032300000000060078E17C0000000E04FAD354071
:103240006666666666664A3F0000000000005940F8
:103250006666666666660A40000000000000303F51
:103260003D0AD7A370AD5040EC51B81E85FB5FC03E
:103270003333333333CB7A403333533A7047000020
:10328000704700007047000040F2F800C2F20000F2
:10329000411C40F2E450C2F20000012200F080BB69
:1032A000B0B582B001680A68CC684B6902F02F059E
:1032B000202D04F0200505D125B102B0BDE8B040B5
:1032C00001F0F8B95FEA027C1EBF03F0010E04F4BE
:1032D000907313EB0E0341D1036BD50618D5012B68
:1032E00016D114F0100313D0002201920A68019243
:1032F0004A680192019A496949064BD4818DC28D71
:10330000C38D002B18BF914240F0F48102B0B0BDD4
:1033100013062DD514F080032AD090F84120212ADD
:10332000F4D18268B2F5805F03D10269002A00F00F
:103330006782026A531C036212784A60C28C013AA7
:103340001304C284E2D1C86820F08000C860C86855
:1033500040F04000C86002B0B0BD00BFD30718BF46
:1033600014F4807340F0D080530700F1D380D8E08C
:103370005206CBD514F04002C8D0CA6822F04002F1
:10338000CA60202180F8411002B0BDE8B04000F0D2
:1033900023BC00BFC16B0A68526893B2002BB5D042
:1033A000858DAB42B2D2C285C969B1F5807F00F08C
:1033B000A080016851E8031F026821F4807142E88F
:1033C0000313DBB1016851E8031F026821F4807127
:1033D00042E8031393B1016851E8031F026821F426
:1033E000807142E803134BB1016851E8031F026882
:1033F00021F4807142E80313002BDAD1016851E80F
:10340000051F026821F0010142E80513BBB3016802
:1034100051E8051F026821F0010142E8051373B36A
:10342000016851E8051F026821F0010142E8051317
:103430002BB3016851E8051F026821F0010142E841
:103440000513002BDAD11AE0016851E8051F026864
:1034500021F0400142E80513DBB1016851E8051F86
:10346000026821F0400142E8051393B1016851E878
:10347000051F026821F0400142E805134BB10168C5
:1034800051E8051F026821F0400142E80513002BB6
:10349000DAD1202180F8421000210163016851E84F
:1034A000031F026821F0100142E80313DBB1016839
:1034B00051E8031F026821F0100142E8031393B1A1
:1034C000016851E8031F026821F0100142E803136C
:1034D0004BB1016851E8031F026821F0100142E876
:1034E0000313002BDAD1C16B04460846FEF7AEFA8F
:1034F000204602214163818DC28D891A89B202B0B2
:10350000BDE8B040FFF7BCBE436C43F00103436429
:10351000530706D5BEF1000F03D0436C43F00203FE
:103520004364930706D5BEF1000F03D0436C43F00C
:1035300004034364BCF1000F06D55EEA050303D023
:10354000436C43F008034364436C002B3FF4DEAE4E
:10355000920605D525B1044601F0ACF82168204655
:103560004969426C01F0400102F00802891800F03C
:10357000B98000BF016851E8031F026821F490710F
:1035800042E80313BBB3016851E8031F026821F44A
:10359000907142E8031373B3016851E8031F026896
:1035A00021F4907142E803132BB3016851E8031F23
:1035B000026821F4907142E80313002BDAD11AE07B
:1035C000016851E8051F026821F0010142E8051376
:1035D000DBB1016851E8051F026821F0010142E8F2
:1035E000051393B1016851E8051F026821F001013C
:1035F00042E805134BB1016851E8051F026821F04C
:10360000010142E80513002BDAD1016B012924D115
:10361000016851E8031F026821F0100142E803131A
:10362000DBB1016851E8031F026821F0100142E894
:10363000031393B1016851E8031F026821F01001E0
:1036400042E803134BB1016851E8031F026821F0FF
:10365000100142E80313002BDAD1202180F8421038
:103660000021016301684969490640F1C38001688E
:1036700051E8051F026821F0400142E80513DBB163
:10368000016851E8051F026821F0400142E8051376
:1036900093B1016851E8051F026821F0400142E83A
:1036A00005134BB1016851E8051F026821F0400184
:1036B00042E80513002BDAD1C16B002900F09A8093
:1036C00044F2A962C0F60002044608460A65FEF705
:1036D00005FA00283FF41AAEE06B016D02B0BDE8B8
:1036E000B04008470446FFF7CDFD0020606402B0FB
:1036F000B0BD00BF891A00BF026852E8032F0368FB
:1037000022F4907243E80325BDB3026852E8032F08
:10371000036822F4907243E8032575B3026852E807
:10372000032F036822F4907243E803252DB3026847
:1037300052E8032F036822F4907243E80325002D1A
:10374000DAD11AE0026852E8052F036822F001027C
:1037500043E80525DDB1026852E8052F036822F031
:10376000010243E8052595B1026852E8052F036878
:1037700022F0010243E805254DB1026852E8052F09
:10378000036822F0010243E80525002DDAD120224A
:1037900080F8422000220263026852E8032F036887
:1037A00022F0100243E80325DDB1026852E8032F3E
:1037B000036822F0100243E8032595B1026852E83D
:1037C000032F036822F0100243E803254DB102687D
:1037D00052E8032F036822F0100243E80325002D6E
:1037E000DAD1022289B2426302B0BDE8B040FFF7ED
:1037F00047BD00BF02B0BDE8B040FFF743BD00BF0A
:10380000026A32F8023B6FF35F234B60026295E578
:10381000002804BF0120704710B5044690F841000D
:1038200028B9002084F84000204600F021F8242028
:1038300084F841002068C16821F40051C16020462D
:1038400000F0B8FF2068016921F4904101614169ED
:1038500021F02A014161C16841F40051C16000209A
:103860002021606484F8411084F84210606310BD28
:1038700010B586B0006844F60002C4F200020021D0
:103880009042CDE90411CDE90211019152D041F2EB
:103890000041C4F20101884228D041F20001C4F283
:1038A000010188427AD1002043F630010090C4F231
:1038B00002014A69252442F010024A614A6902F075
:1038C00010020092009A0090086840F00100086021
:1038D0000868072100F00100009000984FF4C060D4
:1038E00001900020C4F2020046E000BF002043F631
:1038F00030010090C4F202014A69472442F02002DC
:103900004A614A6902F020020092009A0090086819
:1039100040F0040008600868082100F004000090EE
:103920000098C02001900020C4F2020000F5006061
:1039300022E000BF43F630000091C4F202000269A9
:10394000272442F480220261026902F4802200925C
:10395000009A0091016841F00201016000680721AE
:1039600000F00200009000984FF4406001900020A9
:10397000C4F2020000F5806002220292002203924B
:103980000322CDE9042101A9FEF7BAF8204600215F
:103990000022FEF705FA2046FEF7F0F906B010BD4A
:1039A00090F84230202B07D100294FF0010318BFB7
:1039B000002A05D11846704702231846704700BFF9
:1039C00000230363816222218285C285436480F8DB
:1039D00042100169006819B1C16841F48071C16089
:1039E000416941F001014161C16841F02001C160BC
:1039F00018467047006844F60001C4F2000188428E
:103A000040F2F800C2F2000013D1427801780A2A8D
:103A100008D140F2DC62C2F200020023535403706A
:103A200007E000BF4B1C037040F2DC63C2F20003EE
:103A30005A54411C40F2E450C2F200000122FFF748
:103A4000AFBF00002DE9F04381B0044690F841007B
:103A5000202809D100294FF0010018BF002A07D102
:103A600001B0BDE8F08300BF022001B0BDE8F083E3
:103A70000020606421201D460E4684F84100174650
:103A8000FEF71AF9A784E784A1688146B1F5805F43
:103A900002D1206900285DD037460020E28C2168E1
:103AA000002A5DD06A1C24D0002D4AD0804600BF79
:103AB0000868000608D4FEF7FFF8A0EB0900A8424A
:103AC0007AD82168C868F3E717B117F8010B04E04A
:103AD00038F8020B00276FF35F204860E08C013854
:103AE000E084E08C0028E3D13AE000BF0A681206C7
:103AF00009D40A68120606D40A6812065CBF0A686E
:103B00005FEA0262F2D51FB117F8012B05E000BF92
:103B100030F8022B00276FF35F224A60E28C013AF3
:103B2000E284E28C002AE4D11AE000BF30F8022BD4
:103B300000276FF35F224A60E28C013AE284E28C54
:103B400072B10A68120635D5002FEFD017F8012B95
:103B5000F1E700BF00273046E28C2168002AA1D19E
:103B6000086840061ED42DB3681C14D108684006AE
:103B70002AD40868400627D40868400624D4086878
:103B800040064FF00000F1D50DE000BF2068C1688D
:103B90000068400618D4FEF78FF8A0EB0900A84291
:103BA000F4D909E00020202184F8411001B0BDE8DB
:103BB000F08300BFFEF780F80320202184F8411035
:103BC00001B0BDE8F08300BF0020202184F841103F
:103BD00001B0BDE8F083000070470000FEE7000080
:103BE000B0B584B040F2CC2042F2000101230024A1
:103BF000C2F20000C4F20101C0F600730125039473
:103C00004FF48032047680F82040C0E90A34C56160
:103C100080F8304080E81600C0E903444561FDF7B4
:103C200037FD002818BFFDF7E7FB40F2CC20C2F2B9
:103C300000006946CDE900550294FDF7E3FB00283A
:103C400018BFFDF7D9FB04B0B0BD0000B0B584B01B
:103C500040F2143042F2001101230024C2F20000AD
:103C6000C4F20101C0F60073012503944FF48032C1
:103C7000047680F82040C0E90A34C56180F83040FD
:103C800080E81600C0E903444561FDF701FD002806
:103C900018BFFDF7B1FB0220CDE9000540F214305A
:103CA000C2F2000069460294FDF7ACFB002818BF81
:103CB000FDF7A2FB04B0B0BDB0B584B040F25C30FB
:103CC00042F2002101230024C2F20000C4F20101EB
:103CD000C0F60073012503944FF48032047680F817
:103CE0002040C0E90A34C56180F8304080E8160001
:103CF000C0E903444561FDF7CBFC002818BFFDF780
:103D00007BFB0320CDE9000540F25C30C2F20000ED
:103D100069460294FDF776FB002818BFFDF76CFB9F
:103D200004B0B0BD70B586B0002543F630000595EF
:103D3000CDE90355CDE901550095C4F202000168B3
:103D400040F6004441F0800101600168C4F20204C1
:103D500001F080010091009900950168002241F076
:103D60000101016001684FF4706601F001010091EA
:103D700000990095016841F002010160016801F0BD
:103D80000201009100990095016841F0080101606D
:103D9000016801F00801009100990095016841F067
:103DA0000401016000684FF4706100F004000090AD
:103DB00000982046FDF77AFF0120CDE9020501A910
:103DC000204601960495FDF79BFE06B070BD0000ED
:103DD00080B540F2A43044F20041C2F20000C4F2C7
:103DE0000101002342F2CF0242F20F7C80E80E1064
:103DF00003618361FEF794FB002808BF80BDBDE826
:103E00008040FDF7F9BA000080B58CB040F2EC308C
:103E100041F600020021C2F20000C4F2000240F2AA
:103E20008F634FF0640C0B91CDE909110791CDE937
:103E30000511CDE90311CDE90111C0E90023C0E965
:103E4000021C01618161FEF76BFB002818BFFDF7C2
:103E5000D3FA4FF48050089040F2EC30C2F20000E8
:103E600008A9FEF715FD002818BFFDF7C5FA40F2B6
:103E7000EC30C2F20000FFF73DF8002818BFFDF754
:103E8000BBFA602001900020CDE90200059040F2CD
:103E9000EC30C2F2000001A90022FEF71BFF00284F
:103EA00018BFFDF7A9FA40F2EC30C2F2000001A9F8
:103EB0000422FEF70FFF002818BFFDF79DFA40F21D
:103EC000EC30C2F20000FEF75DFE0CB080BD0000D9
:103ED00080B588B040F2344041F600420021C2F281
:103EE0000000C4F2000240F28F634FF0630CCDE992
:103EF0000611CDE90411C0E90023C0E9021C0161EB
:103F00008161FEF70DFB002818BFFDF775FA40F23E
:103F10003440C2F20000FEF7EDFF002818BFFDF7A5
:103F20006BFA602001900020CDE90200059040F27C
:103F30003440C2F2000001A90022FEF7CBFE0028A7
:103F400018BFFDF759FA40F23440C2F20000FEF704
:103F500019FE08B080BD000080B588B040F27C40FA
:103F600042F200020021C2F20000C4F2000240F25C
:103F70008F634FF0640CCDE90611CDE90411C0E95F
:103F80000023C0E9021C01618161FEF7C9FA002823
:103F900018BFFDF731FA40F27C40C2F20000FEF794
:103FA000A9FF002818BFFDF727FA60200190002024
:103FB000CDE90200059040F27C40C2F2000001A968
:103FC0000022FEF787FE002818BFFDF715FA40F221
:103FD0007C40C2F20000FEF7D5FD08B080BD0000B5
:103FE00010B58EB040F2C44040F200420021C2F24F
:103FF0000000C4F2000240F28F6364240D91CDE909
:104000000B110991CDE90711CDE90511CDE9031196
:10401000CDE90111C0E90023C0E902140161816109
:10402000FEF77EFA002818BFFDF7E6F94FF480503E
:104030000A9040F2C440C2F200000AA9FEF728FC30
:10404000002818BFFDF7D8F940F2C440C2F20000C2
:10405000FEF750FF002818BFFDF7CEF940F2C4402C
:104060000024C2F2000008A9CDE90844FEF7FAF9DD
:10407000002818BFFDF7C0F96020CDE9010440F227
:10408000C440C2F2000001A9082203940594FEF77F
:1040900021FE002818BFFDF7AFF940F2C440C2F27C
:1040A000000001A90C22FEF715FE002818BFFDF73D
:1040B000A3F940F2C440C2F20000FEF763FD0EB067
:1040C00010BD000080B582B040F20C5041F20002F9
:1040D0000021C2F20000C4F2000253234FF6FF7C1D
:1040E000CDE90011C0E90023C0E9021C8161FEF79F
:1040F00017FA002818BFFDF77FF940F20C50C2F202
:1041000000006946FEF7AEF9002818BFFDF774F904
:1041100002B080BD10B596B040F2545040F200425B
:104120000021C2F20000C4F2010240F28F63632456
:104130001591CDE913111191CDE90F11CDE90D11B3
:10414000CDE90B11CDE90911CDE90711CDE9051133
:10415000CDE90311CDE90111C0E90023C0E9021442
:10416000C0E904118161FEF7DBF9002818BFFDF7F3
:1041700043F94FF48050129040F25450C2F20000C4
:1041800012A9FEF785FB002818BFFDF735F940F2AC
:104190005450C2F20000FEF7ADFE002818BFFDF734
:1041A0002BF940F254500024C2F2000010A9CDE9CE
:1041B0001044FEF757F9002818BFFDF71DF96020DD
:1041C000CDE9090440F25450C2F2000009A90822C6
:1041D000CDE90B44CDE90D440F94FEF77BFD00289B
:1041E00018BFFDF709F940F25450C2F2000009A9C6
:1041F0000C22FEF76FFD002818BFFDF7FDF8002028
:104200000590CDE90300CDE901004FF4005108907D
:1042100040F254500691C2F2000001A9FEF7FCF8EA
:10422000002818BFFDF7E8F840F25450C2F2000031
:10423000FEF7A8FC16B010BD80B540F29C5041F2CC
:104240000001C2F20000C4F2010100234FF00C0C87
:104250004FF4E13280E80E00C0E90333C0E905C342
:10426000C361FFF7D5FA002808BF80BDBDE88040D4
:10427000FDF7C2B880B540F2E45044F60001C2F246
:104280000000C4F2000100234FF00C0C4FF4E132A7
:1042900080E80E00C0E90333C0E905C3C361FFF73E
:1042A000B7FA002808BF80BDBDE88040FDF7A4B87C
:1042B00080B540F22C6041F20041C2F20000C4F22D
:1042C000010100234FF00C0C4FF4E13280E80E00A6
:1042D000C0E90333C0E905C3C361FFF799FA0028B9
:1042E00008BF80BDBDE88040FDF786B8FEE700004E
:1042F000FEE70000000000000000000000000000D9
:10430000EFF30980BFF36F8F154B1A681EF0100F83
:1043100008BF20ED108A20E9F04F10602DE9090058
:104320004FF0500080F31188BFF34F8FBFF36F8FB2
:1043300001F0C6FA4FF0000080F31188BDE80900D3
:1043400019680868B0E8F04F1EF0100F08BFB0EC15
:10435000108A80F30988BFF36F8F704700BF00BFDA
:104360007406002010B540F2EC34C2F2000420467E
:104370000021FEF7F1FD20460421FEF7EDFD40F29D
:104380005454C2F2000420460C21FEF7E5FD2046FD
:104390000821FEF7E1FD40F2C444C2F200042046C9
:1043A0000821FEF7D9FD20460C21FEF7D5FD40F28D
:1043B0003440C2F200000021FEF7CEFD40F27C4006
:1043C000C2F200000021BDE81040FEF7C5BD0000AC
:1043D000074B19680868B0E8F04F80F30988BFF30D
:1043E0006F8F4FF0000080F31188704700BF00BF4F
:1043F0007406002080B54FF0500080F31188BFF3A1
:104400006F8FBFF34F8F01F0C1FE30B14EF60450F5
:10441000CEF200004FF080510160002080F311883F
:1044200080BD000070B592B006AC20463021FCF78C
:10443000DEF8002543F640000595CDE90355CDE9AA
:1044400001550095C4F202000168022641F0805136
:104450000160006800F080500090009847F2000072
:104460000095C4F20000016841F4804101600068D9
:10447000A82100F4804000900098012006904FF49D
:10448000803007904FF480000D9004200E90119022
:1044900020460C96CDE90F16FDF7CEFD10B172B691
:1044A000FEE700BF0F20CDE901064FF4A0500490B5
:1044B0004FF48050059001A805210395FDF7ACFC51
:1044C00010B172B6FEE700BF12B070BD4EF6885054
:1044D000CEF20000016841F47001016070470000F5
:1044E00040F2A430C2F20000FEF7A4BA40F2C44089
:1044F000C2F20000FEF79EBA40F20C50C2F2000079
:10450000FEF798BA80B540F25450C2F20000FEF7B0
:1045100091FA40F2EC30C2F20000BDE88040FEF7B4
:1045200089BA000080B540F25450C2F20000FEF794
:1045300081FA40F27C40C2F20000BDE88040FEF704
:1045400079BA000080B540F25450C2F20000FEF784
:1045500071FA40F23440C2F20000BDE88040FEF73C
:1045600069BA000010B540F6FF3E0368C4F2000EC1
:1045700040F2004C7045C4F2010C25DCB0F1804FD4
:104580002FD040F20042C4F20002904229D040F6FF
:104590000002C4F20002904223D041F6FF72C4F23E
:1045A0000002904227DC70453ADCB0F1804F5BD0CE
:1045B00040F20042C4F20002904255D040F60002A0
:1045C000C4F200024EE000BF40F60042C4F2000216
:1045D000904206D0604504D00022C4F2010290420D
:1045E000DBD14A6823F07003134341F6FF72C4F233
:1045F00000029042D7DD43F6FF72C4F201029042FE
:1046000020DC42F20002C4F2000290422CD00022D0
:10461000C4F20102904227D0604525D028E000BFB7
:1046200040F60042C4F2000290421DD041F6000262
:10463000C4F20002904217D041F60042C4F20002D8
:1046400010E000BF44F20002C4F2010290420BD01D
:1046500044F60002C4F20102904205D044F2004246
:10466000C4F20102904203D1CA6823F44073134399
:1046700023F080024B69D1F800E08C681A43026095
:10468000C46240F48062C0F828E0624504BF096952
:104690000163012141610169C90708BF10BD0169BA
:1046A00021F00101016110BD806B0021C185C18431
:1046B000FEF7E8BD81B090F84210222921D183682D
:1046C0000246B3F5805F09D152F8281F52F8183C12
:1046D000002B63D003685B680AE000BF52F8281F14
:1046E00013B90369002BF5D003685B6803F07F03FF
:1046F0000B70116801311160C18D01390A04C18547
:1047000002D001B0704700BF0168CA6822F02002E1
:10471000CA60CA6822F48072CA604A6922F0010243
:104720004A61202180F8421000214163026B012A76
:104730003CD10163016851E8031F026821F01001B8
:1047400042E80313DBB1016851E8031F026821F05E
:10475000100142E8031393B1016851E8031F026896
:1047600021F0100142E803134BB1016851E8031F27
:10477000026821F0100142E80313002BDAD101682E
:104780000A68D20606D5002200920A68009249689B
:1047900000910099818D01B0FEF772BD02685268E8
:1047A0006FF35F2221F8022B8162A5E701B0FFF7CA
:1047B00021B90000B0B50446006804F108030ECB2F
:1047C0000569194325F440552A4302616269E3698A
:1047D0001143C268194349F20C639A431143C16003
:1047E0004169A26921F4407141F20043114340F450
:1047F0008062C4F201039A42416103D1FDF7D2FB0A
:1048000002E000BFFDF7BAFBE1694FF69C756368F3
:104810001922C0F6FF75B1F5004FA0FB02011FD1B0
:104820005A00DB0FFBF742FD48F21F51C5F2EB11B6
:10483000A0FB01235A0905F1805302FB0300322338
:1048400003EBC000A0FB01014FF4F87000EA111067
:1048500000EB0210C1F34211084421688860B0BD2A
:104860009A009B0FFBF722FD48F21F51C5F2EB1196
:10487000A0FB01235A0902FB0500322303EB0010C1
:10488000A0FB0101F02000EA511000EB0210C1F37F
:104890004311084421688860B0BD000040F29C507C
:1048A000C2F20000FEF7FCBC40F2E450C2F200008D
:1048B000FEF7F6BC40F22C60C2F20000FEF7F0BC3E
:1048C000FEE70000B0B540F20C546FF00501C2F2F3
:1048D0000004081A216885B220464D62FDF716FFD4
:1048E0004FF6F970854213D820684FF6FA7100BF71
:1048F000426A92B28A420BD2426A92B28A4207D28A
:10490000426A92B28A4203D2426A92B28A42EFD398
:1049100040F20C50C2F20000BDE8B040FDF79EBF6F
:1049200070B582B0FDF7CEF9FFF77CFDFFF7FAF91D
:10493000FFF756FBFFF7EEFBFFF766FAFFF7C8FA43
:10494000FFF70AFBFFF778FCFFF794FCFFF7B0FCDA
:10495000FFF746F9FFF77AF9FFF7AEF9FFF738FAF4
:10496000FFF7B0FBFFF7FEFCFEF78EFC40F2A4342D
:10497000C2F200042046FDF7D3FD2046FDF718FFE4
:1049800005204FF4AF71002201F02AF940F2FC013A
:1049900040F27006C2F20001C2F200060860C8B917
:1049A0002748344644F8100F25A0031D00690ECB9C
:1049B00004F1040C206120468CE80E00FBF789FD11
:1049C00082B240F29C50C2F2000021464FF0FF3309
:1049D000FFF738F845F269500324C0F600001DA126
:1049E000C8220023CDE9004601F0B0FA45F6B51023
:1049F000351DC0F6000019A1C8220023CDE90045ED
:104A000001F0A4FA45F6092006F10805C0F60000F9
:104A100013A1C8220023CDE9004501F097FA45F61D
:104A200065100C36C0F600000EA1C8220023CDE9A7
:104A3000004601F08BFA00F0F9FE002002B070BDD4
:104A40005175657565206372656174206661696C76
:104A500065640A00445331384232300054555200E4
:104A600070480000544453002DE9F04140F23816DC
:104A700040F27467C2F20006C2F200070D46D6F893
:104A8000188039680446081D00F06CFB10B1601CEA
:104A90000BD021E038680121C06A326801FA00F0C9
:104AA00022EA00003060601C16D1ADB13868396868
:104AB0003A683B68D7F800C056F84C5F7468CCF889
:104AC0001460A7688460101D7860181DCF60A06016
:104AD000681C3060BDE8F081386814EB080444605D
:104AE00006D3306A39680431BDE8F04100F064BB98
:104AF000F0693968043100F05FFBF06A844238BF26
:104B0000F462BDE8F081000040F2381540F27866AA
:104B10004EF60458C2F20005C2F20006CEF20008BA
:104B20004FF08057A868B8B100F082FB686CC46889
:104B3000201D00F017FBE8680138E860A86801381C
:104B4000A86000F099FB206B00F0AEFB204600F05F
:104B5000ABFBA8680028E7D13068022805D3C8F865
:104B60000070BFF34F8FBFF36F8F00F00DFBA8688D
:104B70000028D9D1F0E7000008480068006880F3F9
:104B800008884FF0000080F3148862B661B6BFF366
:104B90004F8FBFF36F8F00DF00BF000008ED00E014
:104BA00081B00020009040F20C00C2F200000068CA
:104BB0004FF0500181F31188BFF36F8FBFF34F8F18
:104BC000013007D0FEE700BF009830B9009820B947
:104BD000009810B900980028F6D001B07047000086
:104BE00084B040F2AC19C2F200090DF1040800BF14
:104BF000D9F8080006681EB1C068D0F800A001E02E
:104C00004FF0000A00F054FE01F0BAFAD9F8101083
:104C1000834688421FD3002EC9F810B060D0DA4511
:104C20005ED801F0F1FBD9F80800C068C668371DEE
:104C3000384600F097FA96F82800410738D400F07B
:104C4000FA0086F8280071E000F0FA0086F82800E3
:104C5000316A30468847D9F808000168B1B3C068A6
:104C6000C6680568371D384600F07CFA96F82800BB
:104C70004107E9D5B069441974604019366108D21A
:104C8000316A30468847B06921180444746036613F
:104C9000F6D3D9F80C00394600F08EFAD8E700BFF9
:104CA000ABEB0A0181423BD3316A30468847A246CA
:104CB000B069366100EB0A045C457460F0D9D345F5
:104CC00009F108002ED25445EED22BE0D9F80C1091
:104CD000C9F810B0C9E9021001F096FB30E000BF3E
:104CE00016B1002206E000BFD9F80C000068B0FA47
:104CF00080F04209D9F80000AAEB0B0100F008FC93
:104D000001F082FBE0B94EF60450CEF200004FF005
:104D100080510160BFF34F8FBFF36F8F10E000BF72
:104D200009F10C000068394600F046FA316A304655
:104D3000884705E009F10C063068394600F03CFA76
:104D4000D9F800004146002200F092FF00283FF40D
:104D50004FAF01980028F3D4DDF80CB0DBF8140055
:104D600018B10BF1040000F0FDF901F009FAD9F8CF
:104D700010108246884208D330E000BF00F0FA00ED
:104D800087F82800396A38468847D9F8080001684A
:104D900001B3C068C76805683C1D204600F0E2F911
:104DA00097F828004107E9D5B86946197E6040198F
:104DB0003F6108D2396A38468847B86931180644D5
:104DC0007E603F61F6D3D9F80C00214600F0F4F97B
:104DD000D8E700BFD9F80C10C9E902100198C9F84A
:104DE00010A001380828ABD8DFE800F00606482CF0
:104DF0006E0606482C0000BF9BF82810029ADBF8CC
:104E0000180041F001038BF8283083185F4647F8FB
:104E1000043F5345CBF810B008D9924509F1080674
:104E2000BFF48AAF934206D286E700BFAAEB020224
:104E30008242FFF47FAF4A0728D401F0FA008BF8D2
:104E400028004FE09BF8280040F0010102988BF801
:104E500028100028CBF818004AD05044594609F1D0
:104E60000C0241F8040FCBF810B0504588BF09F18F
:104E70000802106800F0A0F962E700BF9BF8280064
:104E800000F0FE008BF828005AE700BF02990144A9
:104E90000BE000BFAAEB010181421DD3DBF820101B
:104EA00058468847DBF8180021460C185445CBF8C3
:104EB0000440CBF810B0EDD98A4509F108000DD2B5
:104EC0008C42EBD20AE000BF9BF828008107D7D4C0
:104ED000584600F0E9F933E709F10C00006839465B
:104EE00000F06AF9DBF820105846884728E700BF31
:104EF0004FF0500080F31188BFF36F8FBFF34F8FD7
:104F0000FEE70000F0B581B0044600F091F994F995
:104F10004560012E0FDB04F1240500BF286850B165
:104F2000284601F0FFF9002818BF00F0FDFBF0B2A1
:104F3000013E0128F2D8FF2684F8456000F09CF974
:104F400000F076F994F94470012F0EDB04F110059E
:104F5000286850B1284601F0E5F9002818BF00F094
:104F6000E3FBF8B2013F0128F2D884F8446001B0B5
:104F7000BDE8F04000F080B970B5044600F098FC40
:104F800040F2E81EC2F2000EDEF8002012B104BBAF
:104F900024E000BF40F63A00C2F20000420700F5EC
:104FA000963200F1070122F0070218BF21F0070036
:104FB0000021A2F10803CEE90501CEF8003042E954
:104FC0000211DEF80020191AC0E90021CEE9011112
:104FD00024B104F007001138A04211D201F014FAF4
:104FE00000F0D4F80020410708BF70BD4FF050001A
:104FF00080F31188BFF36F8FBFF34F8FFEE700BFC1
:1050000024F0070000F11003012BE7DBDEF80400B9
:105010008342E3D8714651F814CFDCF804409C4237
:105020002BD2DCF80000B8B1654644689C4217D228
:105030000668AEB174689C4216D23168A1B14C6862
:105040009C4215D20D689DB16C689C4214D22868B0
:10505000AC460028E9D110E00EF114010DE000BFCC
:105060008446294609E000BFB446014605E000BF7A
:105070008C46314601E000BFAC469445AED00A688C
:10508000DCF80050E01A11280D603DD30CEB03044E
:10509000610709D04FF0500080F31188BFF36F8F84
:1050A000BFF34F8FFEE700BF60600EF11400CCF835
:1050B00004300168A1420BD20868A0420CD20168FA
:1050C000A14205D208680B46A042F2D305E000BF1A
:1050D0000346084601E000BF0B465D6861685E1943
:1050E000A64202D129441C4659606518854207D161
:1050F000DEF80050A84203D0D0E9000529446160E1
:10510000A342206018BF1C60DCF80400DEE9011334
:1051100002F10804091A9942CEF8041038BFCEF8FB
:10512000081040F000400021CCE90010DEF80C002F
:105130000130CEF80C0001F067F9204653E700007B
:10514000034644F6A13021F00101C0F600004FF003
:10515000807C03E903106FF00201A3F1440043E9EE
:10516000091270470169D0E90132D1F804C09A6090
:105170008445536008BF4A60002202610868013814
:105180000860086870470000704700007047000022
:1051900070470000704700004FF0FF31024642F8B0
:1051A000081F00214260C0E903220160704700002F
:1051B000002101617047000010B5D1F800C01CF15A
:1051C000010213D000F1080462681368634511D826
:1051D00053681C68644511D85A68146864450FD830
:1051E00054682368A6466345EED90BE00269D2F8FD
:1051F00004E007E09646224604E000BF9E4601E038
:1052000096461A46C1F804E0CEF808108A6051604C
:10521000086101680131016010BD0000DFF80C0079
:10522000016841F4700101607047000088ED00E002
:105230004FF0500080F31188BFF36F8FBFF34F8F93
:1052400040F20C00C2F2000001684A1C026009B181
:10525000704700BF4EF60450CEF200000068000612
:1052600008BF70474FF0500080F31188BFF36F8F75
:10527000BFF34F8FFEE7000040F20C00C2F20000C7
:10528000016839B10139016018BF7047002080F30F
:10529000118870474FF0500080F31188BFF36F8F73
:1052A000BFF34F8FFEE70000B0B5002808BFB0BDC8
:1052B00050F8041C002909D44FF0500080F31188E5
:1052C000BFF36F8FBFF34F8FFEE700BFA0F108045D
:1052D00022684AB14FF0500080F31188BFF36F8FFE
:1052E000BFF34F8FFEE700BF21F0004140F8041CE0
:1052F000054600F0DDFA40F2E81CC2F2000C55F859
:10530000042CDCF804000CF114031044CCF8040065
:105310001968A1420AD20B68A34229D21968A14296
:1053200004D20B680846A342F2D301E018460B46AC
:1053300041684518A54202D10A4404464260A118BA
:10534000994207D1DCF800108B4203D0D3E9003139
:1053500011446160A042236018BF0460DCF81000B3
:105360000130CCF81000BDE8B04001F04DB800BFEE
:10537000084641684518A542E1D1DDE74EF210002C
:10538000CEF2000000210160816049F23F01C0F2CD
:1053900002014160072101607047000000286FD0C2
:1053A000002908BF7047B0B543F24042C2F2010283
:1053B000536883426ED0D368834271D0536983426D
:1053C00076D0D369834200F07B80536A834200F039
:1053D0007F80D36A834200F08380536B834200F066
:1053E0008780D36B834200F08B80134653F8084FBD
:1053F000D2F800E0002C14464FF0000C18BF6346B2
:10540000BEF1000F54F810EF08BF1346BEF1000FB5
:10541000964618BF64465EF8185F002B18BF1C46FE
:10542000002D154618BFE64655F8203F002C18BF42
:10543000A6461446002B18BF654654F8283FBEF117
:10544000000F18BF7546002B134618BF644653F86B
:1054500030EF002D18BF2C46BEF1000F18BF634679
:10546000002C18BF2346002B4CD152F8383F002B9C
:10547000134608BFC3E90010BDE8B040704700BF45
:105480004FF0500080F31188BFF36F8FBFF34F8F41
:10549000FEE700BF1346C3E90010BDE8B040704707
:1054A00002F10803C3E90010BDE8B040704700BF37
:1054B00002F11003C3E90010BDE8B040704700BF1F
:1054C00002F11803C3E90010BDE8B040704700BF07
:1054D00002F12003C3E90010BDE8B040704700BFEF
:1054E00002F12803C3E90010BDE8B040704700BFD7
:1054F00002F13003C3E90010BDE8B040704700BFBF
:1055000002F13803C3E90010BDE8B0407047000065
:1055100070B515460E460446FFF78AFE94F844001F
:10552000FF2804BF002084F8440094F84500FF28B9
:1055300004BF002084F84500FFF79EFEA06B28B151
:105540002046BDE87040FFF7DDBC00BF04F1240039
:1055500031462A4600F00CF92046BDE87040FFF7BE
:10556000D1BC0000000000009FED370B9FED389A82
:1055700040F2342440F29C5A0FF2BC0856EC105B07
:10558000B2EE048AC2F200040FF2C809C2F2000AA5
:10559000FBF744FCCC20FBF7EBFD4420FBF7E8FDD8
:1055A000FBF73CFCCC20FBF7E3FDBE20FBF7E0FD66
:1055B000FBF718FD0746FBF715FD41B2B1F1FF3FC0
:1055C000414647EA0020C8BF083191ED00ABC0F169
:1055D0000002D8BF90B201F07BFE02460B4651ECB0
:1055E0001A0B01F017FF01F0F5FB0AEE100A02F0AA
:1055F000FDF802460B46B4EE48AAF1EE10FABCBF25
:1056000033462A46B4EE49AA20464946F1EE10FA3E
:10561000C4BF33462A46FAF7C1FE2046FAF759FFBF
:1056200082B2504621464FF0FF33FEF70BFA4FF49B
:105630007A7000F015F8ABE7000000000000B0BF82
:10564000000000000000B03F000000000000F0BFBC
:105650000000204274656D3A252E3266000000007D
:10566000F0B581B0002847D040F23814C2F20004EF
:10567000616949B14FF0500080F31188BFF36F8F1B
:10568000BFF34F8FFEE700BF0646606940F27465C6
:1056900001306061C2F20005A76928680430FFF795
:1056A00061FD68B12868F619466016D3206A29683A
:1056B0000431FFF781FD00F0A7FED0B91CE000BF68
:1056C00028680121C06A226801FA00F022EA00007D
:1056D00020602868F6194660E8D2E069296804313C
:1056E000FFF76AFDE06A864238BFE66200F08CFE92
:1056F00010B101B0F0BD00BF4EF60450CEF2000074
:105700004FF080510160BFF34F8FBFF36F8F01B037
:10571000F0BD000040F23811C2F200014A6B026095
:10572000896941607047000040F23810C2F2000001
:10573000012141627047000080B110B50C4640F273
:105740007461C2F2000109681831FFF735FD204687
:105750000121BDE81040FFF787B900BF4FF05000AE
:1057600080F31188BFF36F8FBFF34F8FFEE7000008
:10577000F0B581B000B340F27464C2F20004436833
:105780002768FB619F6826683762266806F118065D
:105790007E60276807F118079F6023689862036896
:1057A00003F1010303608AB14FF0FF30114601B0ED
:1057B000BDE8F040FFF758B94FF0500080F3118872
:1057C000BFF36F8FBFF34F8FFEE700BF40F2381576
:1057D000C2F20005AF6920680E460430FFF7C2FC34
:1057E00060B12068F619466015D3286A2168043133
:1057F00001B0BDE8F040FFF7DFBC00BF2068012129
:10580000C06A2A6801FA00F022EA000028602068D5
:10581000F6194660E9D2E86921680431FFF7CCFC4B
:10582000E86A864238BFEE6201B0F0BD70B582B062
:1058300040F23816C2F2000644F6093006F1280498
:105840000025C0F6000018A182220023CDE90054F3
:1058500000F07CFB012808BF00F076FE411C19D047
:10586000012810D14FF0500080F31188BFF36F8FE3
:10587000BFF34F8F4FF0FF30F06201203061002006
:10588000B06100F0E9F847F60020C0F600000068BB
:1058900002B070BD4FF0500080F31188BFF36F8FDE
:1058A000BFF34F8FFEE700BF49444C4500000000A6
:1058B00040F23810C2F20000416901314161704785
:1058C000B0B540F23815C2F20005686910B1012088
:1058D0006862B0BD002040F274646862C2F20004E5
:1058E0002068006B0168B1F1A53F0BD14168B1F1AF
:1058F000A53F07D18168B1F1A53F03D1C068B0F1E0
:10590000A53F04D0206821683431FFF741FC2868A6
:10591000B0FA80F0C0B2C0F11F0040F2786100EB35
:105920008000C2F2000151F820205AB101EB800141
:10593000486801F108024068904248600CD0C06895
:105940002060B0BD4FF0500080F31188BFF36F8F1F
:10595000BFF34F8FFEE700BF40684860C06820601B
:10596000B0BD000040F29807C2F2000740F29C561A
:1059700007F140040DA5C2F2000600BFB86B01F0AC
:1059800035FF02460B4620462946FAF707FD20461A
:10599000FAF79FFD82B2304621464FF0FF33FEF703
:1059A00051F84FF47A70FFF75BFEE7E75444533D3C
:1059B00025660A0040F29807C2F2000740F29C56A2
:1059C00007F140040DA5C2F2000600BFB86A01F05D
:1059D0000DFF02460B4620462946FAF7DFFC20461B
:1059E000FAF777FD82B2304621464FF0FF33FEF7DB
:1059F00029F84FF47A70FFF733FEE7E77475723DCC
:105A0000252E32660A00000040F29807C2F2000715
:105A100040F29C5607F140040DA5C2F2000600BFFB
:105A2000B86901F0E3FE02460B4620462946FAF724
:105A3000B5FC2046FAF74DFD82B2304621464FF0C4
:105A4000FF33FDF7FFFF4FF47A70FFF709FEE7E73A
:105A500070483D25660A0000B0B584B04EF2004C97
:105A6000CEF2000C4CF27021C4F20F11DCF80029C8
:105A70004B1C9A420AD14FF0500080F31188BFF3BB
:105A80006F8FBFF34F8F00BFFEE700BFDCF8002928
:105A90008A4209D14FF0500080F31188BFF36F8F15
:105AA000BFF34F8FFEE700BF9CF800100291FF216B
:105AB0008CF800109CF800108DF807109DF8071066
:105AC00001F0500240F20421C2F200010A700722E4
:105AD0004A609DF90720B2F1FF3F6BDC032200BF53
